{
   "call_trace":[
      {
         "contract_name":"UniversalRouter",
         "function":"execute0",
         "from":"0x98d8b33d179ddaba733009f96bbffe7d82f7bda1",
         "from_balance":"5340152976829598348",
         "to":"0x3fc91a3afd70395cd496c647d5a6cc9d4b2b7fad",
         "input":"0x3593564c000000000000000000000000000000000000000000000000000000000000006000000000000000000000000000000000000000000000000000000000000000a00000000000000000000000000000000000000000000000000000000065e1320700000000000000000000000000000000000000000000000000000000000000020b080000000000000000000000000000000000000000000000000000000000000000000000000000000000000000000000000000000000000000000000000002000000000000000000000000000000000000000000000000000000000000004000000000000000000000000000000000000000000000000000000000000000a00000000000000000000000000000000000000000000000000000000000000040000000000000000000000000000000000000000000000000000000000000000200000000000000000000000000000000000000000000000049d46fd03d1400000000000000000000000000000000000000000000000000000000000000000100000000000000000000000000000000000000000000000000000000000000000100000000000000000000000000000000000000000000000049d46fd03d1400000000000000000000000000000000000000000000000000000000000c1212dfac00000000000000000000000000000000000000000000000000000000000000a000000000000000000000000000000000000000000000000000000000000000000000000000000000000000000000000000000000000000000000000000000002000000000000000000000000c02aaa39b223fe8d0a0e5c4f27ead9083c756cc200000000000000000000000068a47fe1cf42eba4a030a10cd4d6a1031ca3ca0a",
         "output":"0x",
         "value":"5320000000000000000",
         "caller":"0x98d8b33d179ddaba733009f96bbffe7d82f7bda1",
         "caller_balance":"20152976829598348",
         "decoded_input":[
            {
               "name":"commands",
               "type":"bytes",
               "value":"0x0b08"
            },
            {
               "name":"inputs",
               "type":"bytes[]",
               "value":[
                  "0x000000000000000000000000000000000000000000000000000000000000000200000000000000000000000000000000000000000000000049d46fd03d140000",
                  "0x000000000000000000000000000000000000000000000000000000000000000100000000000000000000000000000000000000000000000049d46fd03d1400000000000000000000000000000000000000000000000000000000000c1212dfac00000000000000000000000000000000000000000000000000000000000000a000000000000000000000000000000000000000000000000000000000000000000000000000000000000000000000000000000000000000000000000000000002000000000000000000000000c02aaa39b223fe8d0a0e5c4f27ead9083c756cc200000000000000000000000068a47fe1cf42eba4a030a10cd4d6a1031ca3ca0a"
               ]
            },
            {
               "name":"deadline",
               "type":"uint256",
               "value":"1709257223"
            }
         ],
         "calls":[
            {
               "contract_name":"UniversalRouter",
               "function":"execute",
               "from":"0x3fc91a3afd70395cd496c647d5a6cc9d4b2b7fad",
               "from_balance":null,
               "to":"0x3fc91a3afd70395cd496c647d5a6cc9d4b2b7fad",
               "input":"0x",
               "output":"0x",
               "value":null,
               "caller":"0x98d8b33d179ddaba733009f96bbffe7d82f7bda1",
               "caller_balance":"20152976829598348",
               "decoded_input":[
                  {
                     "name":"commands",
                     "type":"bytes",
                     "value":"0x0000"
                  },
                  {
                     "name":"inputs",
                     "type":"bytes[]",
                     "value":null
                  }
               ],
               "calls":[
                  {
                     "contract_name":"UniversalRouter",
                     "function":"map",
                     "from":"0x3fc91a3afd70395cd496c647d5a6cc9d4b2b7fad",
                     "from_balance":null,
                     "to":"0x3fc91a3afd70395cd496c647d5a6cc9d4b2b7fad",
                     "input":"0x",
                     "output":"0x",
                     "value":null,
                     "caller":"0x98d8b33d179ddaba733009f96bbffe7d82f7bda1",
                     "caller_balance":"20152976829598348",
                     "decoded_input":[
                        {
                           "name":"recipient",
                           "type":"address",
                           "value":"0x0000000000000000000000000000000000000002"
                        }
                     ],
                     "decoded_output":[
                        {
                           "name":"",
                           "type":"address",
                           "value":"0x3fc91a3afd70395cd496c647d5a6cc9d4b2b7fad"
                        }
                     ]
                  },
                  {
                     "contract_name":"UniversalRouter",
                     "function":"deposit",
                     "from":"0x3fc91a3afd70395cd496c647d5a6cc9d4b2b7fad",
                     "from_balance":"5320000000000000000",
                     "to":"0xc02aaa39b223fe8d0a0e5c4f27ead9083c756cc2",
                     "input":"0xd0e30db0",
                     "output":"0x",
                     "value":"5320000000000000000",
                     "caller":"0x3fc91a3afd70395cd496c647d5a6cc9d4b2b7fad",
                     "caller_balance":"0"
                  },
                  {
                     "contract_name":"UniversalRouter",
                     "function":"toLengthOffset",
                     "from":"0x3fc91a3afd70395cd496c647d5a6cc9d4b2b7fad",
                     "from_balance":null,
                     "to":"0x3fc91a3afd70395cd496c647d5a6cc9d4b2b7fad",
                     "input":"0x",
                     "output":"0x",
                     "value":null,
                     "caller":"0x98d8b33d179ddaba733009f96bbffe7d82f7bda1",
                     "caller_balance":"20152976829598348",
                     "decoded_input":[
                        {
                           "name":"_bytes",
                           "type":"bytes",
                           "value":null
                        },
                        {
                           "name":"_arg",
                           "type":"uint256",
                           "value":"256"
                        }
                     ],
                     "decoded_output":[
                        {
                           "name":"length",
                           "type":"uint256",
                           "value":"2"
                        },
                        {
                           "name":"offset",
                           "type":"uint256",
                           "value":"580"
                        }
                     ]
                  },
                  {
                     "contract_name":"UniversalRouter",
                     "function":"map",
                     "from":"0x3fc91a3afd70395cd496c647d5a6cc9d4b2b7fad",
                     "from_balance":null,
                     "to":"0x3fc91a3afd70395cd496c647d5a6cc9d4b2b7fad",
                     "input":"0x",
                     "output":"0x",
                     "value":null,
                     "caller":"0x98d8b33d179ddaba733009f96bbffe7d82f7bda1",
                     "caller_balance":"20152976829598348",
                     "decoded_input":[
                        {
                           "name":"recipient",
                           "type":"address",
                           "value":"0x0000000000000000000000000000000000000001"
                        }
                     ],
                     "decoded_output":[
                        {
                           "name":"",
                           "type":"address",
                           "value":"0x98d8b33d179ddaba733009f96bbffe7d82f7bda1"
                        }
                     ]
                  },
                  {
                     "contract_name":"UniversalRouter",
                     "function":"sortTokens",
                     "from":"0x3fc91a3afd70395cd496c647d5a6cc9d4b2b7fad",
                     "from_balance":null,
                     "to":"0x3fc91a3afd70395cd496c647d5a6cc9d4b2b7fad",
                     "input":"0x",
                     "output":"0x",
                     "value":null,
                     "caller":"0x98d8b33d179ddaba733009f96bbffe7d82f7bda1",
                     "caller_balance":"20152976829598348",
                     "decoded_input":[
                        {
                           "name":"tokenA",
                           "type":"address",
                           "value":"0x68a47fe1cf42eba4a030a10cd4d6a1031ca3ca0a"
                        },
                        {
                           "name":"tokenB",
                           "type":"address",
                           "value":"0xc02aaa39b223fe8d0a0e5c4f27ead9083c756cc2"
                        }
                     ],
                     "decoded_output":[
                        {
                           "name":"token0",
                           "type":"address",
                           "value":"0x68a47fe1cf42eba4a030a10cd4d6a1031ca3ca0a"
                        },
                        {
                           "name":"token1",
                           "type":"address",
                           "value":"0xc02aaa39b223fe8d0a0e5c4f27ead9083c756cc2"
                        }
                     ]
                  },
                  {
                     "contract_name":"UniversalRouter",
                     "function":"pairForPreSorted",
                     "from":"0x3fc91a3afd70395cd496c647d5a6cc9d4b2b7fad",
                     "from_balance":null,
                     "to":"0x3fc91a3afd70395cd496c647d5a6cc9d4b2b7fad",
                     "input":"0x",
                     "output":"0x",
                     "value":null,
                     "caller":"0x98d8b33d179ddaba733009f96bbffe7d82f7bda1",
                     "caller_balance":"20152976829598348",
                     "decoded_input":[
                        {
                           "name":"factory",
                           "type":"address",
                           "value":"0xc02aaa39b223fe8d0a0e5c4f27ead9083c756cc2"
                        },
                        {
                           "name":"initCodeHash",
                           "type":"bytes32",
                           "value":"0x00000000000000000000000068a47fe1cf42eba4a030a10cd4d6a1031ca3ca0a"
                        },
                        {
                           "name":"token0",
                           "type":"address",
                           "value":"0x8aa9a39f403cb768dd02cbee326c3e7da348845f"
                        },
                        {
                           "name":"token1",
                           "type":"address",
                           "value":"0x5c69bee701ef814a2b6a3edd4b1652cb9cc5aa6f"
                        }
                     ],
                     "decoded_output":[
                        {
                           "name":"pair",
                           "type":"address",
                           "value":"0xefdf4dfc4e817197851266acf0082a80dab18b24"
                        }
                     ]
                  },
                  {
                     "contract_name":"UniversalRouter",
                     "function":"payOrPermit2Transfer",
                     "from":"0x3fc91a3afd70395cd496c647d5a6cc9d4b2b7fad",
                     "from_balance":null,
                     "to":"0x3fc91a3afd70395cd496c647d5a6cc9d4b2b7fad",
                     "input":"0x",
                     "output":"0x",
                     "value":null,
                     "caller":"0x98d8b33d179ddaba733009f96bbffe7d82f7bda1",
                     "caller_balance":"20152976829598348",
                     "decoded_input":[
                        {
                           "name":"token",
                           "type":"address",
                           "value":"0x00000000000000000000000049d46fd03d140000"
                        },
                        {
                           "name":"payer",
                           "type":"address",
                           "value":"0xefdf4dfc4e817197851266acf0082a80dab18b24"
                        },
                        {
                           "name":"recipient",
                           "type":"address",
                           "value":"0x3fc91a3afd70395cd496c647d5a6cc9d4b2b7fad"
                        },
                        {
                           "name":"amount",
                           "type":"uint256",
                           "value":"1097077688018008265106216665536940668749033598146"
                        }
                     ],
                     "calls":[
                        {
                           "contract_name":"UniversalRouter",
                           "function":"pay",
                           "from":"0x3fc91a3afd70395cd496c647d5a6cc9d4b2b7fad",
                           "from_balance":null,
                           "to":"0x3fc91a3afd70395cd496c647d5a6cc9d4b2b7fad",
                           "input":"0x",
                           "output":"0x",
                           "value":null,
                           "caller":"0x98d8b33d179ddaba733009f96bbffe7d82f7bda1",
                           "caller_balance":"20152976829598348",
                           "decoded_input":[
                              {
                                 "name":"token",
                                 "type":"address",
                                 "value":"0x00000000000000000000000049d46fd03d140000"
                              },
                              {
                                 "name":"recipient",
                                 "type":"address",
                                 "value":"0xefdf4dfc4e817197851266acf0082a80dab18b24"
                              },
                              {
                                 "name":"value",
                                 "type":"uint256",
                                 "value":"1097077688018008265106216665536940668749033598146"
                              }
                           ],
                           "calls":[
                              {
                                 "contract_name":"UniversalRouter",
                                 "function":"safeTransfer",
                                 "from":"0x3fc91a3afd70395cd496c647d5a6cc9d4b2b7fad",
                                 "from_balance":null,
                                 "to":"0x3fc91a3afd70395cd496c647d5a6cc9d4b2b7fad",
                                 "input":"0x",
                                 "output":"0x",
                                 "value":null,
                                 "caller":"0x98d8b33d179ddaba733009f96bbffe7d82f7bda1",
                                 "caller_balance":"20152976829598348",
                                 "decoded_input":[
                                    {
                                       "name":"token",
                                       "type":"address",
                                       "value":"0x00000000000000000000000049d46fd03d140000"
                                    },
                                    {
                                       "name":"to",
                                       "type":"address",
                                       "value":"0xefdf4dfc4e817197851266acf0082a80dab18b24"
                                    },
                                    {
                                       "name":"amount",
                                       "type":"uint256",
                                       "value":"1097077688018008265106216665536940668749033598146"
                                    }
                                 ],
                                 "calls":[
                                    {
                                       "contract_name":"UniversalRouter",
                                       "function":"transfer",
                                       "from":"0x3fc91a3afd70395cd496c647d5a6cc9d4b2b7fad",
                                       "from_balance":"0",
                                       "to":"0xc02aaa39b223fe8d0a0e5c4f27ead9083c756cc2",
                                       "input":"0xa9059cbb000000000000000000000000efdf4dfc4e817197851266acf0082a80dab18b2400000000000000000000000000000000000000000000000049d46fd03d140000",
                                       "output":"0x0000000000000000000000000000000000000000000000000000000000000001",
                                       "value":"0",
                                       "caller":"0x3fc91a3afd70395cd496c647d5a6cc9d4b2b7fad",
                                       "caller_balance":"0",
                                       "decoded_input":[
                                          {
                                             "name":"dst",
                                             "type":"address",
                                             "value":"0xefdf4dfc4e817197851266acf0082a80dab18b24"
                                          },
                                          {
                                             "name":"wad",
                                             "type":"uint256",
                                             "value":"5320000000000000000"
                                          }
                                       ],
                                       "decoded_output":[
                                          {
                                             "name":"",
                                             "type":"bool",
                                             "value":true
                                          }
                                       ],
                                       "calls":[
                                          {
                                             "contract_name":"WETH9",
                                             "function":"transferFrom",
                                             "from":"0xc02aaa39b223fe8d0a0e5c4f27ead9083c756cc2",
                                             "from_balance":null,
                                             "to":"0xc02aaa39b223fe8d0a0e5c4f27ead9083c756cc2",
                                             "input":"0x",
                                             "output":"0x",
                                             "value":null,
                                             "caller":"0x3fc91a3afd70395cd496c647d5a6cc9d4b2b7fad",
                                             "caller_balance":"0",
                                             "decoded_input":[
                                                {
                                                   "name":"src",
                                                   "type":"address",
                                                   "value":"0x3fc91a3afd70395cd496c647d5a6cc9d4b2b7fad"
                                                },
                                                {
                                                   "name":"dst",
                                                   "type":"address",
                                                   "value":"0xefdf4dfc4e817197851266acf0082a80dab18b24"
                                                },
                                                {
                                                   "name":"wad",
                                                   "type":"uint256",
                                                   "value":"5320000000000000000"
                                                }
                                             ],
                                             "decoded_output":[
                                                {
                                                   "name":"",
                                                   "type":"bool",
                                                   "value":true
                                                }
                                             ]
                                          }
                                       ]
                                    }
                                 ]
                              }
                           ]
                        }
                     ]
                  },
                  {
                     "contract_name":"UniversalRouter",
                     "function":"balanceOf",
                     "from":"0x3fc91a3afd70395cd496c647d5a6cc9d4b2b7fad",
                     "from_balance":"0",
                     "to":"0x68a47fe1cf42eba4a030a10cd4d6a1031ca3ca0a",
                     "input":"0x70a0823100000000000000000000000098d8b33d179ddaba733009f96bbffe7d82f7bda1",
                     "output":"0x0000000000000000000000000000000000000000000000000000000000000000",
                     "value":null,
                     "caller":"0x3fc91a3afd70395cd496c647d5a6cc9d4b2b7fad",
                     "caller_balance":"0",
                     "decoded_input":[
                        {
                           "name":"_owner",
                           "type":"address",
                           "value":"0x98d8b33d179ddaba733009f96bbffe7d82f7bda1"
                        }
                     ],
                     "decoded_output":[
                        {
                           "name":"balance",
                           "type":"uint256",
                           "value":"0"
                        }
                     ]
                  },
                  {
                     "contract_name":"UniversalRouter",
                     "function":"_v2Swap",
                     "from":"0x3fc91a3afd70395cd496c647d5a6cc9d4b2b7fad",
                     "from_balance":null,
                     "to":"0x3fc91a3afd70395cd496c647d5a6cc9d4b2b7fad",
                     "input":"0x",
                     "output":"0x",
                     "value":null,
                     "caller":"0x98d8b33d179ddaba733009f96bbffe7d82f7bda1",
                     "caller_balance":"20152976829598348",
                     "decoded_input":[
                        {
                           "name":"path",
                           "type":"address[]",
                           "value":null
                        },
                        {
                           "name":"recipient",
                           "type":"address",
                           "value":"0x98d8b33d179ddaba733009f96bbffe7d82f7bda1"
                        },
                        {
                           "name":"pair",
                           "type":"address",
                           "value":"0x0000000000000000000000000000000000000002"
                        }
                     ],
                     "calls":[
                        {
                           "contract_name":"UniversalRouter",
                           "function":"sortTokens",
                           "from":"0x3fc91a3afd70395cd496c647d5a6cc9d4b2b7fad",
                           "from_balance":null,
                           "to":"0x3fc91a3afd70395cd496c647d5a6cc9d4b2b7fad",
                           "input":"0x",
                           "output":"0x",
                           "value":null,
                           "caller":"0x98d8b33d179ddaba733009f96bbffe7d82f7bda1",
                           "caller_balance":"20152976829598348",
                           "decoded_input":[
                              {
                                 "name":"tokenA",
                                 "type":"address",
                                 "value":"0x68a47fe1cf42eba4a030a10cd4d6a1031ca3ca0a"
                              },
                              {
                                 "name":"tokenB",
                                 "type":"address",
                                 "value":"0xc02aaa39b223fe8d0a0e5c4f27ead9083c756cc2"
                              }
                           ],
                           "decoded_output":[
                              {
                                 "name":"token0",
                                 "type":"address",
                                 "value":"0x68a47fe1cf42eba4a030a10cd4d6a1031ca3ca0a"
                              },
                              {
                                 "name":"token1",
                                 "type":"address",
                                 "value":"0xc02aaa39b223fe8d0a0e5c4f27ead9083c756cc2"
                              }
                           ]
                        },
                        {
                           "contract_name":"UniversalRouter",
                           "function":"getReserves",
                           "from":"0x3fc91a3afd70395cd496c647d5a6cc9d4b2b7fad",
                           "from_balance":"0",
                           "to":"0xefdf4dfc4e817197851266acf0082a80dab18b24",
                           "input":"0x0902f1ac",
                           "output":"0x000000000000000000000000000000000000000000000000000003f2f1ac623b000000000000000000000000000000000000000000000017cb47e0a3234269fc0000000000000000000000000000000000000000000000000000000065e12fd3",
                           "value":null,
                           "caller":"0x3fc91a3afd70395cd496c647d5a6cc9d4b2b7fad",
                           "caller_balance":"0",
                           "decoded_output":[
                              {
                                 "name":"_reserve0",
                                 "type":"uint112",
                                 "value":"4341971575355"
                              },
                              {
                                 "name":"_reserve1",
                                 "type":"uint112",
                                 "value":"438923036999641360892"
                              },
                              {
                                 "name":"_blockTimestampLast",
                                 "type":"uint32",
                                 "value":1709256659
                              }
                           ]
                        },
                        {
                           "contract_name":"UniversalRouter",
                           "function":"balanceOf",
                           "from":"0x3fc91a3afd70395cd496c647d5a6cc9d4b2b7fad",
                           "from_balance":"0",
                           "to":"0xc02aaa39b223fe8d0a0e5c4f27ead9083c756cc2",
                           "input":"0x70a08231000000000000000000000000efdf4dfc4e817197851266acf0082a80dab18b24",
                           "output":"0x000000000000000000000000000000000000000000000018151c5073605669fc",
                           "value":null,
                           "caller":"0x3fc91a3afd70395cd496c647d5a6cc9d4b2b7fad",
                           "caller_balance":"0",
                           "decoded_input":[
                              {
                                 "name":"",
                                 "type":"address",
                                 "value":"0xefdf4dfc4e817197851266acf0082a80dab18b24"
                              }
                           ],
                           "decoded_output":[
                              {
                                 "name":"",
                                 "type":"uint256",
                                 "value":"444243036999641360892"
                              }
                           ]
                        },
                        {
                           "contract_name":"UniversalRouter",
                           "function":"swap",
                           "from":"0x3fc91a3afd70395cd496c647d5a6cc9d4b2b7fad",
                           "from_balance":"0",
                           "to":"0xefdf4dfc4e817197851266acf0082a80dab18b24",
                           "input":"0x022c0d9f0000000000000000000000000000000000000000000000000000000c1212e0fa000000000000000000000000000000000000000000000000000000000000000000000000000000000000000098d8b33d179ddaba733009f96bbffe7d82f7bda100000000000000000000000000000000000000000000000000000000000000800000000000000000000000000000000000000000000000000000000000000000",
                           "output":"0x",
                           "value":"0",
                           "caller":"0x3fc91a3afd70395cd496c647d5a6cc9d4b2b7fad",
                           "caller_balance":"0",
                           "decoded_input":[
                              {
                                 "name":"amount0Out",
                                 "type":"uint256",
                                 "value":"51842834682"
                              },
                              {
                                 "name":"amount1Out",
                                 "type":"uint256",
                                 "value":"0"
                              },
                              {
                                 "name":"to",
                                 "type":"address",
                                 "value":"0x98d8b33d179ddaba733009f96bbffe7d82f7bda1"
                              },
                              {
                                 "name":"data",
                                 "type":"bytes",
                                 "value":"0x"
                              }
                           ],
                           "calls":[
                              {
                                 "contract_name":"UniswapV2Pair",
                                 "function":"getReserves",
                                 "from":"0xefdf4dfc4e817197851266acf0082a80dab18b24",
                                 "from_balance":null,
                                 "to":"0xefdf4dfc4e817197851266acf0082a80dab18b24",
                                 "input":"0x",
                                 "output":"0x",
                                 "value":null,
                                 "caller":"0x3fc91a3afd70395cd496c647d5a6cc9d4b2b7fad",
                                 "caller_balance":"0",
                                 "decoded_output":[
                                    {
                                       "name":"_reserve0",
                                       "type":"uint112",
                                       "value":"4341971575355"
                                    },
                                    {
                                       "name":"_reserve1",
                                       "type":"uint112",
                                       "value":"438923036999641360892"
                                    },
                                    {
                                       "name":"_blockTimestampLast",
                                       "type":"uint32",
                                       "value":1709256659
                                    }
                                 ]
                              },
                              {
                                 "contract_name":"UniswapV2Pair",
                                 "function":"_safeTransfer",
                                 "from":"0xefdf4dfc4e817197851266acf0082a80dab18b24",
                                 "from_balance":null,
                                 "to":"0xefdf4dfc4e817197851266acf0082a80dab18b24",
                                 "input":"0x",
                                 "output":"0x",
                                 "value":null,
                                 "caller":"0x3fc91a3afd70395cd496c647d5a6cc9d4b2b7fad",
                                 "caller_balance":"0",
                                 "decoded_input":[
                                    {
                                       "name":"token",
                                       "type":"address",
                                       "value":"0x68a47fe1cf42eba4a030a10cd4d6a1031ca3ca0a"
                                    },
                                    {
                                       "name":"to",
                                       "type":"address",
                                       "value":"0x98d8b33d179ddaba733009f96bbffe7d82f7bda1"
                                    },
                                    {
                                       "name":"value",
                                       "type":"uint256",
                                       "value":"51842834682"
                                    }
                                 ],
                                 "calls":[
                                    {
                                       "contract_name":"UniswapV2Pair",
                                       "function":"transfer",
                                       "from":"0xefdf4dfc4e817197851266acf0082a80dab18b24",
                                       "from_balance":"0",
                                       "to":"0x68a47fe1cf42eba4a030a10cd4d6a1031ca3ca0a",
                                       "input":"0xa9059cbb00000000000000000000000098d8b33d179ddaba733009f96bbffe7d82f7bda10000000000000000000000000000000000000000000000000000000c1212e0fa",
                                       "output":"0x0000000000000000000000000000000000000000000000000000000000000001",
                                       "value":"0",
                                       "caller":"0xefdf4dfc4e817197851266acf0082a80dab18b24",
                                       "caller_balance":"0",
                                       "decoded_input":[
                                          {
                                             "name":"_to",
                                             "type":"address",
                                             "value":"0x98d8b33d179ddaba733009f96bbffe7d82f7bda1"
                                          },
                                          {
                                             "name":"_value",
                                             "type":"uint256",
                                             "value":"51842834682"
                                          }
                                       ],
                                       "decoded_output":[
                                          {
                                             "name":"success",
                                             "type":"bool",
                                             "value":true
                                          }
                                       ],
                                       "calls":[
                                          {
                                             "contract_name":"Tettoken",
                                             "function":"sub",
                                             "from":"0x68a47fe1cf42eba4a030a10cd4d6a1031ca3ca0a",
                                             "from_balance":null,
                                             "to":"0x68a47fe1cf42eba4a030a10cd4d6a1031ca3ca0a",
                                             "input":"0x",
                                             "output":"0x",
                                             "value":null,
                                             "caller":"0xefdf4dfc4e817197851266acf0082a80dab18b24",
                                             "caller_balance":"0",
                                             "decoded_input":[
                                                {
                                                   "name":"a",
                                                   "type":"uint256",
                                                   "value":"4341971575355"
                                                },
                                                {
                                                   "name":"b",
                                                   "type":"uint256",
                                                   "value":"51842834682"
                                                }
                                             ],
                                             "decoded_output":[
                                                {
                                                   "name":"",
                                                   "type":"uint256",
                                                   "value":"4290128740673"
                                                }
                                             ]
                                          },
                                          {
                                             "contract_name":"Tettoken",
                                             "function":"add",
                                             "from":"0x68a47fe1cf42eba4a030a10cd4d6a1031ca3ca0a",
                                             "from_balance":null,
                                             "to":"0x68a47fe1cf42eba4a030a10cd4d6a1031ca3ca0a",
                                             "input":"0x",
                                             "output":"0x",
                                             "value":null,
                                             "caller":"0xefdf4dfc4e817197851266acf0082a80dab18b24",
                                             "caller_balance":"0",
                                             "decoded_input":[
                                                {
                                                   "name":"a",
                                                   "type":"uint256",
                                                   "value":"0"
                                                },
                                                {
                                                   "name":"b",
                                                   "type":"uint256",
                                                   "value":"51842834682"
                                                }
                                             ],
                                             "decoded_output":[
                                                {
                                                   "name":"",
                                                   "type":"uint256",
                                                   "value":"51842834682"
                                                }
                                             ]
                                          }
                                       ]
                                    }
                                 ]
                              },
                              {
                                 "contract_name":"UniswapV2Pair",
                                 "function":"balanceOf",
                                 "from":"0xefdf4dfc4e817197851266acf0082a80dab18b24",
                                 "from_balance":"0",
                                 "to":"0x68a47fe1cf42eba4a030a10cd4d6a1031ca3ca0a",
                                 "input":"0x70a08231000000000000000000000000efdf4dfc4e817197851266acf0082a80dab18b24",
                                 "output":"0x000000000000000000000000000000000000000000000000000003e6df998141",
                                 "value":null,
                                 "caller":"0xefdf4dfc4e817197851266acf0082a80dab18b24",
                                 "caller_balance":"0",
                                 "decoded_input":[
                                    {
                                       "name":"_owner",
                                       "type":"address",
                                       "value":"0xefdf4dfc4e817197851266acf0082a80dab18b24"
                                    }
                                 ],
                                 "decoded_output":[
                                    {
                                       "name":"balance",
                                       "type":"uint256",
                                       "value":"4290128740673"
                                    }
                                 ]
                              },
                              {
                                 "contract_name":"UniswapV2Pair",
                                 "function":"balanceOf",
                                 "from":"0xefdf4dfc4e817197851266acf0082a80dab18b24",
                                 "from_balance":"0",
                                 "to":"0xc02aaa39b223fe8d0a0e5c4f27ead9083c756cc2",
                                 "input":"0x70a08231000000000000000000000000efdf4dfc4e817197851266acf0082a80dab18b24",
                                 "output":"0x000000000000000000000000000000000000000000000018151c5073605669fc",
                                 "value":null,
                                 "caller":"0xefdf4dfc4e817197851266acf0082a80dab18b24",
                                 "caller_balance":"0",
                                 "decoded_input":[
                                    {
                                       "name":"",
                                       "type":"address",
                                       "value":"0xefdf4dfc4e817197851266acf0082a80dab18b24"
                                    }
                                 ],
                                 "decoded_output":[
                                    {
                                       "name":"",
                                       "type":"uint256",
                                       "value":"444243036999641360892"
                                    }
                                 ]
                              },
                              {
                                 "contract_name":"UniswapV2Pair",
                                 "function":"mul",
                                 "from":"0xefdf4dfc4e817197851266acf0082a80dab18b24",
                                 "from_balance":null,
                                 "to":"0xefdf4dfc4e817197851266acf0082a80dab18b24",
                                 "input":"0x",
                                 "output":"0x",
                                 "value":null,
                                 "caller":"0x3fc91a3afd70395cd496c647d5a6cc9d4b2b7fad",
                                 "caller_balance":"0",
                                 "decoded_input":[
                                    {
                                       "name":"x",
                                       "type":"uint256",
                                       "value":"0"
                                    },
                                    {
                                       "name":"y",
                                       "type":"uint256",
                                       "value":"3"
                                    }
                                 ],
                                 "decoded_output":[
                                    {
                                       "name":"z",
                                       "type":"uint256",
                                       "value":"0"
                                    }
                                 ]
                              },
                              {
                                 "contract_name":"UniswapV2Pair",
                                 "function":"mul",
                                 "from":"0xefdf4dfc4e817197851266acf0082a80dab18b24",
                                 "from_balance":null,
                                 "to":"0xefdf4dfc4e817197851266acf0082a80dab18b24",
                                 "input":"0x",
                                 "output":"0x",
                                 "value":null,
                                 "caller":"0x3fc91a3afd70395cd496c647d5a6cc9d4b2b7fad",
                                 "caller_balance":"0",
                                 "decoded_input":[
                                    {
                                       "name":"x",
                                       "type":"uint256",
                                       "value":"4290128740673"
                                    },
                                    {
                                       "name":"y",
                                       "type":"uint256",
                                       "value":"1000"
                                    }
                                 ],
                                 "decoded_output":[
                                    {
                                       "name":"z",
                                       "type":"uint256",
                                       "value":"4290128740673000"
                                    }
                                 ]
                              },
                              {
                                 "contract_name":"UniswapV2Pair",
                                 "function":"sub",
                                 "from":"0xefdf4dfc4e817197851266acf0082a80dab18b24",
                                 "from_balance":null,
                                 "to":"0xefdf4dfc4e817197851266acf0082a80dab18b24",
                                 "input":"0x",
                                 "output":"0x",
                                 "value":null,
                                 "caller":"0x3fc91a3afd70395cd496c647d5a6cc9d4b2b7fad",
                                 "caller_balance":"0",
                                 "decoded_input":[
                                    {
                                       "name":"x",
                                       "type":"uint256",
                                       "value":"4290128740673000"
                                    },
                                    {
                                       "name":"y",
                                       "type":"uint256",
                                       "value":"0"
                                    }
                                 ],
                                 "decoded_output":[
                                    {
                                       "name":"z",
                                       "type":"uint256",
                                       "value":"4290128740673000"
                                    }
                                 ]
                              },
                              {
                                 "contract_name":"UniswapV2Pair",
                                 "function":"mul",
                                 "from":"0xefdf4dfc4e817197851266acf0082a80dab18b24",
                                 "from_balance":null,
                                 "to":"0xefdf4dfc4e817197851266acf0082a80dab18b24",
                                 "input":"0x",
                                 "output":"0x",
                                 "value":null,
                                 "caller":"0x3fc91a3afd70395cd496c647d5a6cc9d4b2b7fad",
                                 "caller_balance":"0",
                                 "decoded_input":[
                                    {
                                       "name":"x",
                                       "type":"uint256",
                                       "value":"5320000000000000000"
                                    },
                                    {
                                       "name":"y",
                                       "type":"uint256",
                                       "value":"3"
                                    }
                                 ],
                                 "decoded_output":[
                                    {
                                       "name":"z",
                                       "type":"uint256",
                                       "value":"15960000000000000000"
                                    }
                                 ]
                              },
                              {
                                 "contract_name":"UniswapV2Pair",
                                 "function":"mul",
                                 "from":"0xefdf4dfc4e817197851266acf0082a80dab18b24",
                                 "from_balance":null,
                                 "to":"0xefdf4dfc4e817197851266acf0082a80dab18b24",
                                 "input":"0x",
                                 "output":"0x",
                                 "value":null,
                                 "caller":"0x3fc91a3afd70395cd496c647d5a6cc9d4b2b7fad",
                                 "caller_balance":"0",
                                 "decoded_input":[
                                    {
                                       "name":"x",
                                       "type":"uint256",
                                       "value":"444243036999641360892"
                                    },
                                    {
                                       "name":"y",
                                       "type":"uint256",
                                       "value":"1000"
                                    }
                                 ],
                                 "decoded_output":[
                                    {
                                       "name":"z",
                                       "type":"uint256",
                                       "value":"444243036999641360892000"
                                    }
                                 ]
                              },
                              {
                                 "contract_name":"UniswapV2Pair",
                                 "function":"sub",
                                 "from":"0xefdf4dfc4e817197851266acf0082a80dab18b24",
                                 "from_balance":null,
                                 "to":"0xefdf4dfc4e817197851266acf0082a80dab18b24",
                                 "input":"0x",
                                 "output":"0x",
                                 "value":null,
                                 "caller":"0x3fc91a3afd70395cd496c647d5a6cc9d4b2b7fad",
                                 "caller_balance":"0",
                                 "decoded_input":[
                                    {
                                       "name":"x",
                                       "type":"uint256",
                                       "value":"444243036999641360892000"
                                    },
                                    {
                                       "name":"y",
                                       "type":"uint256",
                                       "value":"15960000000000000000"
                                    }
                                 ],
                                 "decoded_output":[
                                    {
                                       "name":"z",
                                       "type":"uint256",
                                       "value":"444227076999641360892000"
                                    }
                                 ]
                              },
                              {
                                 "contract_name":"UniswapV2Pair",
                                 "function":"mul",
                                 "from":"0xefdf4dfc4e817197851266acf0082a80dab18b24",
                                 "from_balance":null,
                                 "to":"0xefdf4dfc4e817197851266acf0082a80dab18b24",
                                 "input":"0x",
                                 "output":"0x",
                                 "value":null,
                                 "caller":"0x3fc91a3afd70395cd496c647d5a6cc9d4b2b7fad",
                                 "caller_balance":"0",
                                 "decoded_input":[
                                    {
                                       "name":"x",
                                       "type":"uint256",
                                       "value":"4341971575355"
                                    },
                                    {
                                       "name":"y",
                                       "type":"uint256",
                                       "value":"438923036999641360892"
                                    }
                                 ],
                                 "decoded_output":[
                                    {
                                       "name":"z",
                                       "type":"uint256",
                                       "value":"1905791350420933752322253328016660"
                                    }
                                 ]
                              },
                              {
                                 "contract_name":"UniswapV2Pair",
                                 "function":"mul",
                                 "from":"0xefdf4dfc4e817197851266acf0082a80dab18b24",
                                 "from_balance":null,
                                 "to":"0xefdf4dfc4e817197851266acf0082a80dab18b24",
                                 "input":"0x",
                                 "output":"0x",
                                 "value":null,
                                 "caller":"0x3fc91a3afd70395cd496c647d5a6cc9d4b2b7fad",
                                 "caller_balance":"0",
                                 "decoded_input":[
                                    {
                                       "name":"x",
                                       "type":"uint256",
                                       "value":"1905791350420933752322253328016660"
                                    },
                                    {
                                       "name":"y",
                                       "type":"uint256",
                                       "value":"1000000"
                                    }
                                 ],
                                 "decoded_output":[
                                    {
                                       "name":"z",
                                       "type":"uint256",
                                       "value":"1905791350420933752322253328016660000000"
                                    }
                                 ]
                              },
                              {
                                 "contract_name":"UniswapV2Pair",
                                 "function":"mul",
                                 "from":"0xefdf4dfc4e817197851266acf0082a80dab18b24",
                                 "from_balance":null,
                                 "to":"0xefdf4dfc4e817197851266acf0082a80dab18b24",
                                 "input":"0x",
                                 "output":"0x",
                                 "value":null,
                                 "caller":"0x3fc91a3afd70395cd496c647d5a6cc9d4b2b7fad",
                                 "caller_balance":"0",
                                 "decoded_input":[
                                    {
                                       "name":"x",
                                       "type":"uint256",
                                       "value":"4290128740673000"
                                    },
                                    {
                                       "name":"y",
                                       "type":"uint256",
                                       "value":"444227076999641360892000"
                                    }
                                 ],
                                 "decoded_output":[
                                    {
                                       "name":"z",
                                       "type":"uint256",
                                       "value":"1905791350421319194876239871960316000000"
                                    }
                                 ]
                              },
                              {
                                 "contract_name":"UniswapV2Pair",
                                 "function":"_update",
                                 "from":"0xefdf4dfc4e817197851266acf0082a80dab18b24",
                                 "from_balance":null,
                                 "to":"0xefdf4dfc4e817197851266acf0082a80dab18b24",
                                 "input":"0x",
                                 "output":"0x",
                                 "value":null,
                                 "caller":"0x3fc91a3afd70395cd496c647d5a6cc9d4b2b7fad",
                                 "caller_balance":"0",
                                 "decoded_input":[
                                    {
                                       "name":"balance0",
                                       "type":"uint256",
                                       "value":"4290128740673"
                                    },
                                    {
                                       "name":"balance1",
                                       "type":"uint256",
                                       "value":"444243036999641360892"
                                    },
                                    {
                                       "name":"_reserve0",
                                       "type":"uint112",
                                       "value":"4341971575355"
                                    },
                                    {
                                       "name":"_reserve1",
                                       "type":"uint112",
                                       "value":"438923036999641360892"
                                    }
                                 ]
                              }
                           ]
                        }
                     ]
                  },
                  {
                     "contract_name":"UniversalRouter",
                     "function":"balanceOf",
                     "from":"0x3fc91a3afd70395cd496c647d5a6cc9d4b2b7fad",
                     "from_balance":"0",
                     "to":"0x68a47fe1cf42eba4a030a10cd4d6a1031ca3ca0a",
                     "input":"0x70a0823100000000000000000000000098d8b33d179ddaba733009f96bbffe7d82f7bda1",
                     "output":"0x0000000000000000000000000000000000000000000000000000000c1212e0fa",
                     "value":null,
                     "caller":"0x3fc91a3afd70395cd496c647d5a6cc9d4b2b7fad",
                     "caller_balance":"0",
                     "decoded_input":[
                        {
                           "name":"_owner",
                           "type":"address",
                           "value":"0x98d8b33d179ddaba733009f96bbffe7d82f7bda1"
                        }
                     ],
                     "decoded_output":[
                        {
                           "name":"balance",
                           "type":"uint256",
                           "value":"51842834682"
                        }
                     ]
                  }
               ]
            }
         ]
      }
   ],
   "asset_changes":[
      {
         "type":"Mint",
         "from":"",
         "to":"0x3fc91a3afd70395cd496c647d5a6cc9d4b2b7fad",
         "amount":"5.32",
         "dollar_value":"18631.279023437500001",
         "token_info":{
            "standard":"ERC20",
            "type":"Fungible",
            "symbol":"weth",
            "name":"WETH",
            "decimals":18,
            "contract_address":"0xc02aaa39b223fe8d0a0e5c4f27ead9083c756cc2"
         }
      },
      {
         "type":"Transfer",
         "from":"0x3fc91a3afd70395cd496c647d5a6cc9d4b2b7fad",
         "to":"0xefdf4dfc4e817197851266acf0082a80dab18b24",
         "amount":"5.32",
         "dollar_value":"18631.279023437500001",
         "token_info":{
            "standard":"ERC20",
            "type":"Fungible",
            "symbol":"weth",
            "name":"WETH",
            "decimals":18,
            "contract_address":"0xc02aaa39b223fe8d0a0e5c4f27ead9083c756cc2"
         }
      },
      {
         "type":"Transfer",
         "from":"0xefdf4dfc4e817197851266acf0082a80dab18b24",
         "to":"0x98d8b33d179ddaba733009f96bbffe7d82f7bda1",
         "amount":"518.42834682",
         "dollar_value":"12748.153127409687882",
         "token_info":{
            "standard":"ERC20",
            "type":"Fungible",
            "symbol":"tet",
            "name":"Tectum",
            "decimals":8,
            "contract_address":"0x68a47fe1cf42eba4a030a10cd4d6a1031ca3ca0a"
         }
      },
      {
         "type":"Transfer",
         "from":"0x98d8b33d179ddaba733009f96bbffe7d82f7bda1",
         "to":"0x3fc91a3afd70395cd496c647d5a6cc9d4b2b7fad",
         "amount":"5.32",
         "dollar_value":"18642.450244140625001",
         "token_info":{
            "standard":"NativeCurrency",
            "type":"Native",
            "symbol":"eth",
            "name":"Ethereum",
            "decimals":18,
            "contract_address":""
         }
      },
      {
         "type":"Transfer",
         "from":"0x3fc91a3afd70395cd496c647d5a6cc9d4b2b7fad",
         "to":"0xc02aaa39b223fe8d0a0e5c4f27ead9083c756cc2",
         "amount":"5.32",
         "dollar_value":"18642.450244140625001",
         "token_info":{
            "standard":"NativeCurrency",
            "type":"Native",
            "symbol":"eth",
            "name":"Ethereum",
            "decimals":18,
            "contract_address":""
         }
      }
   ],
   "hash":"0x9e4b92afffc52d07b7a8188366b6c205126803027c23dce712ee97f4cb38c32e"
}