{
   "call_trace":[
      {
         "contract_name":"",
         "function":"",
         "from":"0x5554c1b49d8c5569cb79027179da89a8b8e9b66f",
         "from_balance":"34573501160615227",
         "to":"0xfdf47b657ab5062938ba23335b01e0f545faf852",
         "input":"0x07a91528000000000000000000000000000000000000000000000000000000000000006000000000000000000000000000000000000000000000000000000000000000000000000000000000000000000000000000000000000000000000000000000000000000000000000000000000000000000000000000000000000000000000000cf7ecc1ecb2b910b9db7244c0a5dfd719cc02e1da382c7ffbd5b32f93150ff571b5bb33c8a87150db9fdefb62a6d552ff0a71e62165f2589792c6ad807446e90cd0b278536ced3ca528dbd4ed0f6ad20d28431249603245aa3158dceb427dbbaeb5d2b43c4c43d9985154cac17cb48a3d95ee12037cba229faaae7bf6a32752321f8d828e3584322fe9493ec484c906442d9e7db2ed1a292d3506b7a4eb17bedce78479d04c500631f88c0820cc2a92c679712341f7371f1bf079fa49e15a996e2550f3ff9307b0b3781fc311e647ec30eee6af5ac6448bb69950f7c7f848392ae1a3da69daa8a56618d00ade8aeed432465a53758d2a7ccc463d64203e61e5d7adf4117e10f410705858711c3b55aa60943a30043599ba99dc56a141f53e6a6495c8cad5b55114f45e2375a0664ef92806890166401ba6618ecbd2e5f5ac8c3d96d4ebc335c4d6aa45aebf85cd11c7c214e38090bfa4f0da7ffd78e306725dbc7bc740784d447b56e9720adeb8c4cf5f238ec835e4f3de80e21c89998b638ca2",
         "output":"0x",
         "value":"0",
         "calls":[
            {
               "contract_name":"",
               "function":"",
               "from":"0xfdf47b657ab5062938ba23335b01e0f545faf852",
               "from_balance":"278800000000000000000",
               "to":"0x7a655a234ddf076c3530ac847040f8d8c5115021",
               "input":"0x54e9f7cd",
               "output":"0x7e7ad5897ac0bf1c2b965d29f5862921987d437c76838cd777963dbaeb363804",
               "value":null,
               "decoded_output":[
                  {
                     "name":"",
                     "type":"bytes32",
                     "value":"0x7e7ad5897ac0bf1c2b965d29f5862921987d437c76838cd777963dbaeb363804"
                  }
               ]
            },
            {
               "contract_name":"",
               "function":"openPhaseContributed",
               "from":"0xfdf47b657ab5062938ba23335b01e0f545faf852",
               "from_balance":"278800000000000000000",
               "to":"0x7a655a234ddf076c3530ac847040f8d8c5115021",
               "input":"0xf3ef576c0000000000000000000000005554c1b49d8c5569cb79027179da89a8b8e9b66f",
               "output":"0x000000000000000000000000000000000000000000000000016345785d8a0000",
               "value":null,
               "caller":"0xfdf47b657ab5062938ba23335b01e0f545faf852",
               "caller_balance":"278800000000000000000",
               "decoded_input":[
                  {
                     "name":"",
                     "type":"address",
                     "value":"0x5554c1b49d8c5569cb79027179da89a8b8e9b66f"
                  }
               ],
               "decoded_output":[
                  {
                     "name":"",
                     "type":"uint256",
                     "value":"100000000000000000"
                  }
               ]
            },
            {
               "contract_name":"",
               "function":"",
               "from":"0xfdf47b657ab5062938ba23335b01e0f545faf852",
               "from_balance":"278800000000000000000",
               "to":"0x5554c1b49d8c5569cb79027179da89a8b8e9b66f",
               "input":"0x",
               "output":"0x",
               "value":"100000000000000000"
            }
         ]
      }
   ],
   "asset_changes":[
      {
         "type":"Transfer",
         "from":"0xfdf47b657ab5062938ba23335b01e0f545faf852",
         "to":"0x5554c1b49d8c5569cb79027179da89a8b8e9b66f",
         "amount":"0.1",
         "dollar_value":"350.4219970703125",
         "token_info":{
            "standard":"NativeCurrency",
            "type":"Native",
            "symbol":"eth",
            "name":"Ethereum",
            "decimals":18,
            "contract_address":""
         }
      }
   ],
   "hash":"0x72e3ceeab145b53675c6e4597448b20f03085a12b99d99d43e53bc7ecab4d7a9"
}